{
  "_format": "hh-sol-artifact-1",
  "contractName": "ZKPVerifier",
  "sourceName": "contracts/verifiers/ZKPVerifier.sol",
  "abi": [
    {
      "anonymous": false,
      "inputs": [
        {
          "indexed": true,
          "internalType": "address",
          "name": "previousOwner",
          "type": "address"
        },
        {
          "indexed": true,
          "internalType": "address",
          "name": "newOwner",
          "type": "address"
        }
      ],
      "name": "OwnershipTransferred",
      "type": "event"
    },
    {
      "inputs": [],
      "name": "getSupportedRequests",
      "outputs": [
        {
          "internalType": "uint64[]",
          "name": "arr",
          "type": "uint64[]"
        }
      ],
      "stateMutability": "view",
      "type": "function"
    },
    {
      "inputs": [
        {
          "internalType": "uint64",
          "name": "requestId",
          "type": "uint64"
        }
      ],
      "name": "getZKPRequest",
      "outputs": [
        {
          "components": [
            {
              "internalType": "uint256",
              "name": "schema",
              "type": "uint256"
            },
            {
              "internalType": "uint256",
              "name": "slotIndex",
              "type": "uint256"
            },
            {
              "internalType": "uint256",
              "name": "operator",
              "type": "uint256"
            },
            {
              "internalType": "uint256[]",
              "name": "value",
              "type": "uint256[]"
            },
            {
              "internalType": "string",
              "name": "circuitId",
              "type": "string"
            }
          ],
          "internalType": "struct ICircuitValidator.CircuitQuery",
          "name": "",
          "type": "tuple"
        }
      ],
      "stateMutability": "view",
      "type": "function"
    },
    {
      "inputs": [],
      "name": "owner",
      "outputs": [
        {
          "internalType": "address",
          "name": "",
          "type": "address"
        }
      ],
      "stateMutability": "view",
      "type": "function"
    },
    {
      "inputs": [
        {
          "internalType": "address",
          "name": "",
          "type": "address"
        },
        {
          "internalType": "uint64",
          "name": "",
          "type": "uint64"
        }
      ],
      "name": "proofs",
      "outputs": [
        {
          "internalType": "bool",
          "name": "",
          "type": "bool"
        }
      ],
      "stateMutability": "view",
      "type": "function"
    },
    {
      "inputs": [],
      "name": "renounceOwnership",
      "outputs": [],
      "stateMutability": "nonpayable",
      "type": "function"
    },
    {
      "inputs": [
        {
          "internalType": "uint64",
          "name": "",
          "type": "uint64"
        }
      ],
      "name": "requestQueries",
      "outputs": [
        {
          "internalType": "uint256",
          "name": "schema",
          "type": "uint256"
        },
        {
          "internalType": "uint256",
          "name": "slotIndex",
          "type": "uint256"
        },
        {
          "internalType": "uint256",
          "name": "operator",
          "type": "uint256"
        },
        {
          "internalType": "string",
          "name": "circuitId",
          "type": "string"
        }
      ],
      "stateMutability": "view",
      "type": "function"
    },
    {
      "inputs": [
        {
          "internalType": "uint64",
          "name": "",
          "type": "uint64"
        }
      ],
      "name": "requestValidators",
      "outputs": [
        {
          "internalType": "contract ICircuitValidator",
          "name": "",
          "type": "address"
        }
      ],
      "stateMutability": "view",
      "type": "function"
    },
    {
      "inputs": [
        {
          "internalType": "uint64",
          "name": "requestId",
          "type": "uint64"
        },
        {
          "internalType": "contract ICircuitValidator",
          "name": "validator",
          "type": "address"
        },
        {
          "components": [
            {
              "internalType": "uint256",
              "name": "schema",
              "type": "uint256"
            },
            {
              "internalType": "uint256",
              "name": "slotIndex",
              "type": "uint256"
            },
            {
              "internalType": "uint256",
              "name": "operator",
              "type": "uint256"
            },
            {
              "internalType": "uint256[]",
              "name": "value",
              "type": "uint256[]"
            },
            {
              "internalType": "string",
              "name": "circuitId",
              "type": "string"
            }
          ],
          "internalType": "struct ICircuitValidator.CircuitQuery",
          "name": "query",
          "type": "tuple"
        }
      ],
      "name": "setZKPRequest",
      "outputs": [
        {
          "internalType": "bool",
          "name": "",
          "type": "bool"
        }
      ],
      "stateMutability": "nonpayable",
      "type": "function"
    },
    {
      "inputs": [
        {
          "internalType": "uint64",
          "name": "requestId",
          "type": "uint64"
        },
        {
          "internalType": "uint256[]",
          "name": "inputs",
          "type": "uint256[]"
        },
        {
          "internalType": "uint256[2]",
          "name": "a",
          "type": "uint256[2]"
        },
        {
          "internalType": "uint256[2][2]",
          "name": "b",
          "type": "uint256[2][2]"
        },
        {
          "internalType": "uint256[2]",
          "name": "c",
          "type": "uint256[2]"
        }
      ],
      "name": "submitZKPResponse",
      "outputs": [
        {
          "internalType": "bool",
          "name": "",
          "type": "bool"
        }
      ],
      "stateMutability": "nonpayable",
      "type": "function"
    },
    {
      "inputs": [
        {
          "internalType": "uint256",
          "name": "",
          "type": "uint256"
        }
      ],
      "name": "supportedRequests",
      "outputs": [
        {
          "internalType": "uint64",
          "name": "",
          "type": "uint64"
        }
      ],
      "stateMutability": "view",
      "type": "function"
    },
    {
      "inputs": [
        {
          "internalType": "address",
          "name": "newOwner",
          "type": "address"
        }
      ],
      "name": "transferOwnership",
      "outputs": [],
      "stateMutability": "nonpayable",
      "type": "function"
    }
  ],
  "bytecode": "0x608060405234801561001057600080fd5b5061002d61002261003260201b60201c565b61003a60201b60201c565b6100fe565b600033905090565b60008060009054906101000a900473ffffffffffffffffffffffffffffffffffffffff169050816000806101000a81548173ffffffffffffffffffffffffffffffffffffffff021916908373ffffffffffffffffffffffffffffffffffffffff1602179055508173ffffffffffffffffffffffffffffffffffffffff168173ffffffffffffffffffffffffffffffffffffffff167f8be0079c531659141344cd1fd0a4f28419497f9722a3daafe3b4186f6b6457e060405160405180910390a35050565b612432806200010e6000396000f3fe608060405234801561001057600080fd5b50600436106100a95760003560e01c8063b45c0fdf11610071578063b45c0fdf14610157578063b68967e214610187578063c76d0845146101b7578063f1435326146101e7578063f2fde38b14610217578063fee207e614610233576100a9565b806337ba9523146100ae578063715018a6146100cc5780638da5cb5b146100d657806396bf4741146100f4578063a872311414610127575b600080fd5b6100b6610263565b6040516100c39190610f2f565b60405180910390f35b6100d46102ef565b005b6100de610303565b6040516100eb9190610f92565b60405180910390f35b61010e60048036038101906101099190610fed565b61032c565b60405161011e94939291906110c3565b60405180910390f35b610141600480360381019061013c9190610fed565b6103e4565b60405161014e919061116e565b60405180910390f35b610171600480360381019061016c91906111b5565b610417565b60405161017e9190611210565b60405180910390f35b6101a1600480360381019061019c9190611501565b610446565b6040516101ae9190611210565b60405180910390f35b6101d160048036038101906101cc9190610fed565b6107c5565b6040516101de919061171f565b60405180910390f35b61020160048036038101906101fc9190611741565b61090e565b60405161020e919061177d565b60405180910390f35b610231600480360381019061022c9190611798565b61094c565b005b61024d60048036038101906102489190611986565b6109cf565b60405161025a9190611210565b60405180910390f35b606060048054806020026020016040519081016040528092919081815260200182805480156102e557602002820191906000526020600020906000905b82829054906101000a900467ffffffffffffffff1667ffffffffffffffff16815260200190600801906020826007010492830192600103820291508084116102a05790505b5050505050905090565b6102f7610c70565b6103016000610cee565b565b60008060009054906101000a900473ffffffffffffffffffffffffffffffffffffffff16905090565b600260205280600052604060002060009150905080600001549080600101549080600201549080600401805461036190611a24565b80601f016020809104026020016040519081016040528092919081815260200182805461038d90611a24565b80156103da5780601f106103af576101008083540402835291602001916103da565b820191906000526020600020905b8154815290600101906020018083116103bd57829003601f168201915b5050505050905084565b60036020528060005260406000206000915054906101000a900473ffffffffffffffffffffffffffffffffffffffff1681565b60016020528160005260406000206020528060005260406000206000915091509054906101000a900460ff1681565b60008073ffffffffffffffffffffffffffffffffffffffff16600360008867ffffffffffffffff1667ffffffffffffffff16815260200190815260200160002060009054906101000a900473ffffffffffffffffffffffffffffffffffffffff1673ffffffffffffffffffffffffffffffffffffffff16036104fd576040517f08c379a00000000000000000000000000000000000000000000000000000000081526004016104f490611ac7565b60405180910390fd5b6000600260008867ffffffffffffffff1667ffffffffffffffff168152602001908152602001600020600001540361056a576040517f08c379a000000000000000000000000000000000000000000000000000000000815260040161056190611b59565b60405180910390fd5b6105bc8686600360008a67ffffffffffffffff1667ffffffffffffffff16815260200190815260200160002060009054906101000a900473ffffffffffffffffffffffffffffffffffffffff16610db2565b600360008767ffffffffffffffff1667ffffffffffffffff16815260200190815260200160002060009054906101000a900473ffffffffffffffffffffffffffffffffffffffff1673ffffffffffffffffffffffffffffffffffffffff166367e1d50486868686600260008d67ffffffffffffffff1667ffffffffffffffff1681526020019081526020016000206040518663ffffffff1660e01b815260040161066a959493929190611f77565b602060405180830381865afa158015610687573d6000803e3d6000fd5b505050506040513d601f19601f820116820180604052508101906106ab9190612006565b6106ea576040517f08c379a00000000000000000000000000000000000000000000000000000000081526004016106e19061207f565b60405180910390fd5b60018060003373ffffffffffffffffffffffffffffffffffffffff1673ffffffffffffffffffffffffffffffffffffffff16815260200190815260200160002060008867ffffffffffffffff1667ffffffffffffffff16815260200190815260200160002060006101000a81548160ff0219169083151502179055506107b88686600360008a67ffffffffffffffff1667ffffffffffffffff16815260200190815260200160002060009054906101000a900473ffffffffffffffffffffffffffffffffffffffff16610db7565b6001905095945050505050565b6107cd610dc4565b600260008367ffffffffffffffff1667ffffffffffffffff1681526020019081526020016000206040518060a00160405290816000820154815260200160018201548152602001600282015481526020016003820180548060200260200160405190810160405280929190818152602001828054801561086c57602002820191906000526020600020905b815481526020019060010190808311610858575b5050505050815260200160048201805461088590611a24565b80601f01602080910402602001604051908101604052809291908181526020018280546108b190611a24565b80156108fe5780601f106108d3576101008083540402835291602001916108fe565b820191906000526020600020905b8154815290600101906020018083116108e157829003601f168201915b5050505050815250509050919050565b6004818154811061091e57600080fd5b9060005260206000209060049182820401919006600802915054906101000a900467ffffffffffffffff1681565b610954610c70565b600073ffffffffffffffffffffffffffffffffffffffff168173ffffffffffffffffffffffffffffffffffffffff16036109c3576040517f08c379a00000000000000000000000000000000000000000000000000000000081526004016109ba90612111565b60405180910390fd5b6109cc81610cee565b50565b60006109d9610c70565b600073ffffffffffffffffffffffffffffffffffffffff16600360008667ffffffffffffffff1667ffffffffffffffff16815260200190815260200160002060009054906101000a900473ffffffffffffffffffffffffffffffffffffffff1673ffffffffffffffffffffffffffffffffffffffff1603610aab5760048490806001815401808255809150506001900390600052602060002090600491828204019190066008029091909190916101000a81548167ffffffffffffffff021916908367ffffffffffffffff1602179055505b8160600151600260008667ffffffffffffffff1667ffffffffffffffff1681526020019081526020016000206003019080519060200190610aed929190610df3565b508160400151600260008667ffffffffffffffff1667ffffffffffffffff168152602001908152602001600020600201819055508160800151600260008667ffffffffffffffff1667ffffffffffffffff1681526020019081526020016000206004019081610b5c91906122be565b508160200151600260008667ffffffffffffffff1667ffffffffffffffff168152602001908152602001600020600101819055508160000151600260008667ffffffffffffffff1667ffffffffffffffff168152602001908152602001600020600001819055508160800151600260008667ffffffffffffffff1667ffffffffffffffff1681526020019081526020016000206004019081610bfe91906122be565b5082600360008667ffffffffffffffff1667ffffffffffffffff16815260200190815260200160002060006101000a81548173ffffffffffffffffffffffffffffffffffffffff021916908373ffffffffffffffffffffffffffffffffffffffff160217905550600190509392505050565b610c78610dbc565b73ffffffffffffffffffffffffffffffffffffffff16610c96610303565b73ffffffffffffffffffffffffffffffffffffffff1614610cec576040517f08c379a0000000000000000000000000000000000000000000000000000000008152600401610ce3906123dc565b60405180910390fd5b565b60008060009054906101000a900473ffffffffffffffffffffffffffffffffffffffff169050816000806101000a81548173ffffffffffffffffffffffffffffffffffffffff021916908373ffffffffffffffffffffffffffffffffffffffff1602179055508173ffffffffffffffffffffffffffffffffffffffff168173ffffffffffffffffffffffffffffffffffffffff167f8be0079c531659141344cd1fd0a4f28419497f9722a3daafe3b4186f6b6457e060405160405180910390a35050565b505050565b505050565b600033905090565b6040518060a0016040528060008152602001600081526020016000815260200160608152602001606081525090565b828054828255906000526020600020908101928215610e2f579160200282015b82811115610e2e578251825591602001919060010190610e13565b5b509050610e3c9190610e40565b5090565b5b80821115610e59576000816000905550600101610e41565b5090565b600081519050919050565b600082825260208201905092915050565b6000819050602082019050919050565b600067ffffffffffffffff82169050919050565b610ea681610e89565b82525050565b6000610eb88383610e9d565b60208301905092915050565b6000602082019050919050565b6000610edc82610e5d565b610ee68185610e68565b9350610ef183610e79565b8060005b83811015610f22578151610f098882610eac565b9750610f1483610ec4565b925050600181019050610ef5565b5085935050505092915050565b60006020820190508181036000830152610f498184610ed1565b905092915050565b600073ffffffffffffffffffffffffffffffffffffffff82169050919050565b6000610f7c82610f51565b9050919050565b610f8c81610f71565b82525050565b6000602082019050610fa76000830184610f83565b92915050565b6000604051905090565b600080fd5b600080fd5b610fca81610e89565b8114610fd557600080fd5b50565b600081359050610fe781610fc1565b92915050565b60006020828403121561100357611002610fb7565b5b600061101184828501610fd8565b91505092915050565b6000819050919050565b61102d8161101a565b82525050565b600081519050919050565b600082825260208201905092915050565b60005b8381101561106d578082015181840152602081019050611052565b60008484015250505050565b6000601f19601f8301169050919050565b600061109582611033565b61109f818561103e565b93506110af81856020860161104f565b6110b881611079565b840191505092915050565b60006080820190506110d86000830187611024565b6110e56020830186611024565b6110f26040830185611024565b8181036060830152611104818461108a565b905095945050505050565b6000819050919050565b600061113461112f61112a84610f51565b61110f565b610f51565b9050919050565b600061114682611119565b9050919050565b60006111588261113b565b9050919050565b6111688161114d565b82525050565b6000602082019050611183600083018461115f565b92915050565b61119281610f71565b811461119d57600080fd5b50565b6000813590506111af81611189565b92915050565b600080604083850312156111cc576111cb610fb7565b5b60006111da858286016111a0565b92505060206111eb85828601610fd8565b9150509250929050565b60008115159050919050565b61120a816111f5565b82525050565b60006020820190506112256000830184611201565b92915050565b600080fd5b7f4e487b7100000000000000000000000000000000000000000000000000000000600052604160045260246000fd5b61126882611079565b810181811067ffffffffffffffff8211171561128757611286611230565b5b80604052505050565b600061129a610fad565b90506112a6828261125f565b919050565b600067ffffffffffffffff8211156112c6576112c5611230565b5b602082029050602081019050919050565b600080fd5b6112e58161101a565b81146112f057600080fd5b50565b600081359050611302816112dc565b92915050565b600061131b611316846112ab565b611290565b9050808382526020820190506020840283018581111561133e5761133d6112d7565b5b835b81811015611367578061135388826112f3565b845260208401935050602081019050611340565b5050509392505050565b600082601f8301126113865761138561122b565b5b8135611396848260208601611308565b91505092915050565b600067ffffffffffffffff8211156113ba576113b9611230565b5b602082029050919050565b60006113d86113d38461139f565b611290565b905080602084028301858111156113f2576113f16112d7565b5b835b8181101561141b578061140788826112f3565b8452602084019350506020810190506113f4565b5050509392505050565b600082601f83011261143a5761143961122b565b5b60026114478482856113c5565b91505092915050565b600067ffffffffffffffff82111561146b5761146a611230565b5b602082029050919050565b600061148961148484611450565b611290565b905080604084028301858111156114a3576114a26112d7565b5b835b818110156114cc57806114b88882611425565b8452602084019350506040810190506114a5565b5050509392505050565b600082601f8301126114eb576114ea61122b565b5b60026114f8848285611476565b91505092915050565b6000806000806000610140868803121561151e5761151d610fb7565b5b600061152c88828901610fd8565b955050602086013567ffffffffffffffff81111561154d5761154c610fbc565b5b61155988828901611371565b945050604061156a88828901611425565b935050608061157b888289016114d6565b92505061010061158d88828901611425565b9150509295509295909350565b6115a38161101a565b82525050565b600081519050919050565b600082825260208201905092915050565b6000819050602082019050919050565b60006115e1838361159a565b60208301905092915050565b6000602082019050919050565b6000611605826115a9565b61160f81856115b4565b935061161a836115c5565b8060005b8381101561164b57815161163288826115d5565b975061163d836115ed565b92505060018101905061161e565b5085935050505092915050565b600082825260208201905092915050565b600061167482611033565b61167e8185611658565b935061168e81856020860161104f565b61169781611079565b840191505092915050565b600060a0830160008301516116ba600086018261159a565b5060208301516116cd602086018261159a565b5060408301516116e0604086018261159a565b50606083015184820360608601526116f882826115fa565b915050608083015184820360808601526117128282611669565b9150508091505092915050565b6000602082019050818103600083015261173981846116a2565b905092915050565b60006020828403121561175757611756610fb7565b5b6000611765848285016112f3565b91505092915050565b61177781610e89565b82525050565b6000602082019050611792600083018461176e565b92915050565b6000602082840312156117ae576117ad610fb7565b5b60006117bc848285016111a0565b91505092915050565b60006117d082610f71565b9050919050565b6117e0816117c5565b81146117eb57600080fd5b50565b6000813590506117fd816117d7565b92915050565b600080fd5b600080fd5b600080fd5b600067ffffffffffffffff82111561182d5761182c611230565b5b61183682611079565b9050602081019050919050565b82818337600083830152505050565b600061186561186084611812565b611290565b9050828152602081018484840111156118815761188061180d565b5b61188c848285611843565b509392505050565b600082601f8301126118a9576118a861122b565b5b81356118b9848260208601611852565b91505092915050565b600060a082840312156118d8576118d7611803565b5b6118e260a0611290565b905060006118f2848285016112f3565b6000830152506020611906848285016112f3565b602083015250604061191a848285016112f3565b604083015250606082013567ffffffffffffffff81111561193e5761193d611808565b5b61194a84828501611371565b606083015250608082013567ffffffffffffffff81111561196e5761196d611808565b5b61197a84828501611894565b60808301525092915050565b60008060006060848603121561199f5761199e610fb7565b5b60006119ad86828701610fd8565b93505060206119be868287016117ee565b925050604084013567ffffffffffffffff8111156119df576119de610fbc565b5b6119eb868287016118c2565b9150509250925092565b7f4e487b7100000000000000000000000000000000000000000000000000000000600052602260045260246000fd5b60006002820490506001821680611a3c57607f821691505b602082108103611a4f57611a4e6119f5565b5b50919050565b7f76616c696461746f72206973206e6f742073657420666f72207468697320726560008201527f7175657374206964000000000000000000000000000000000000000000000000602082015250565b6000611ab160288361103e565b9150611abc82611a55565b604082019050919050565b60006020820190508181036000830152611ae081611aa4565b9050919050565b7f7175657279206973206e6f742073657420666f7220746869732072657175657360008201527f7420696400000000000000000000000000000000000000000000000000000000602082015250565b6000611b4360248361103e565b9150611b4e82611ae7565b604082019050919050565b60006020820190508181036000830152611b7281611b36565b9050919050565b600082825260208201905092915050565b6000611b95826115a9565b611b9f8185611b79565b9350611baa836115c5565b8060005b83811015611bdb578151611bc288826115d5565b9750611bcd836115ed565b925050600181019050611bae565b5085935050505092915050565b600060029050919050565b600081905092915050565b6000819050919050565b6000602082019050919050565b611c1e81611be8565b611c288184611bf3565b9250611c3382611bfe565b8060005b83811015611c64578151611c4b87826115d5565b9650611c5683611c08565b925050600181019050611c37565b505050505050565b600060029050919050565b600081905092915050565b6000819050919050565b600081905092915050565b611ca081611be8565b611caa8184611c8c565b9250611cb582611bfe565b8060005b83811015611ce6578151611ccd87826115d5565b9650611cd883611c08565b925050600181019050611cb9565b505050505050565b6000611cfa8383611c97565b60408301905092915050565b6000602082019050919050565b611d1c81611c6c565b611d268184611c77565b9250611d3182611c82565b8060005b83811015611d62578151611d498782611cee565b9650611d5483611d06565b925050600181019050611d35565b505050505050565b60008160001c9050919050565b6000819050919050565b6000611d94611d8f83611d6a565b611d77565b9050919050565b600081549050919050565b60008190508160005260206000209050919050565b6000611dc78254611d81565b9050919050565b6000600182019050919050565b6000611de682611d9b565b611df081856115b4565b9350611dfb83611da6565b8060005b83811015611e3357611e1082611dbb565b611e1a88826115d5565b9750611e2583611dce565b925050600181019050611dff565b5085935050505092915050565b60008190508160005260206000209050919050565b60008154611e6281611a24565b611e6c8186611658565b94506001821660008114611e875760018114611e9d57611ed0565b60ff198316865281151560200286019350611ed0565b611ea685611e40565b60005b83811015611ec857815481890152600182019150602081019050611ea9565b808801955050505b50505092915050565b600060a083016000808401549050611ef081611d81565b611efd600087018261159a565b5060018401549050611f0e81611d81565b611f1b602087018261159a565b5060028401549050611f2c81611d81565b611f39604087018261159a565b50600384018583036060870152611f508382611ddb565b925050600484018583036080870152611f698382611e55565b925050819250505092915050565b6000610140820190508181036000830152611f928188611b8a565b9050611fa16020830187611c15565b611fae6060830186611d13565b611fbb60e0830185611c15565b818103610120830152611fce8184611ed9565b90509695505050505050565b611fe3816111f5565b8114611fee57600080fd5b50565b60008151905061200081611fda565b92915050565b60006020828403121561201c5761201b610fb7565b5b600061202a84828501611ff1565b91505092915050565b7f70726f6f6620726573706f6e7365206973206e6f742076616c69640000000000600082015250565b6000612069601b8361103e565b915061207482612033565b602082019050919050565b600060208201905081810360008301526120988161205c565b9050919050565b7f4f776e61626c653a206e6577206f776e657220697320746865207a65726f206160008201527f6464726573730000000000000000000000000000000000000000000000000000602082015250565b60006120fb60268361103e565b91506121068261209f565b604082019050919050565b6000602082019050818103600083015261212a816120ee565b9050919050565b60006020601f8301049050919050565b600082821b905092915050565b60006008830261217e7fffffffffffffffffffffffffffffffffffffffffffffffffffffffffffffffff82612141565b6121888683612141565b95508019841693508086168417925050509392505050565b60006121bb6121b66121b18461101a565b61110f565b61101a565b9050919050565b6000819050919050565b6121d5836121a0565b6121e96121e1826121c2565b84845461214e565b825550505050565b600090565b6121fe6121f1565b6122098184846121cc565b505050565b5b8181101561222d576122226000826121f6565b60018101905061220f565b5050565b601f8211156122725761224381611e40565b61224c84612131565b8101602085101561225b578190505b61226f61226785612131565b83018261220e565b50505b505050565b600082821c905092915050565b600061229560001984600802612277565b1980831691505092915050565b60006122ae8383612284565b9150826002028217905092915050565b6122c782611033565b67ffffffffffffffff8111156122e0576122df611230565b5b6122ea8254611a24565b6122f5828285612231565b600060209050601f8311600181146123285760008415612316578287015190505b61232085826122a2565b865550612388565b601f19841661233686611e40565b60005b8281101561235e57848901518255600182019150602085019450602081019050612339565b8683101561237b5784890151612377601f891682612284565b8355505b6001600288020188555050505b505050505050565b7f4f776e61626c653a2063616c6c6572206973206e6f7420746865206f776e6572600082015250565b60006123c660208361103e565b91506123d182612390565b602082019050919050565b600060208201905081810360008301526123f5816123b9565b905091905056fea26469706673582212208192083e0060ff9640b01495cb5153a5161ad4802fcde2234ff6d77efc993bf364736f6c63430008110033",
  "linkReferences": {},
  "deployedLinkReferences": {}
}