{
  "_format": "hh-sol-artifact-1",
  "contractName": "Estay",
  "sourceName": "contracts/Estay.sol",
  "abi": [
    {
      "inputs": [],
      "stateMutability": "nonpayable",
      "type": "constructor"
    },
    {
      "anonymous": false,
      "inputs": [
        {
          "indexed": true,
          "internalType": "address",
          "name": "previousOwner",
          "type": "address"
        },
        {
          "indexed": true,
          "internalType": "address",
          "name": "newOwner",
          "type": "address"
        }
      ],
      "name": "OwnershipTransferred",
      "type": "event"
    },
    {
      "anonymous": false,
      "inputs": [
        {
          "indexed": false,
          "internalType": "string[]",
          "name": "datesBooked",
          "type": "string[]"
        },
        {
          "indexed": false,
          "internalType": "uint256",
          "name": "id",
          "type": "uint256"
        },
        {
          "indexed": false,
          "internalType": "string",
          "name": "city",
          "type": "string"
        },
        {
          "indexed": false,
          "internalType": "string",
          "name": "imageurl",
          "type": "string"
        },
        {
          "indexed": false,
          "internalType": "address",
          "name": "booker",
          "type": "address"
        }
      ],
      "name": "newDatesBooked",
      "type": "event"
    },
    {
      "anonymous": false,
      "inputs": [
        {
          "indexed": false,
          "internalType": "string",
          "name": "name",
          "type": "string"
        },
        {
          "indexed": false,
          "internalType": "string",
          "name": "city",
          "type": "string"
        },
        {
          "indexed": false,
          "internalType": "string",
          "name": "latitude",
          "type": "string"
        },
        {
          "indexed": false,
          "internalType": "string",
          "name": "longitude",
          "type": "string"
        },
        {
          "indexed": false,
          "internalType": "string",
          "name": "description1",
          "type": "string"
        },
        {
          "indexed": false,
          "internalType": "string",
          "name": "description2",
          "type": "string"
        },
        {
          "indexed": false,
          "internalType": "string",
          "name": "imageUrl",
          "type": "string"
        },
        {
          "indexed": false,
          "internalType": "uint256",
          "name": "maxGuests",
          "type": "uint256"
        },
        {
          "indexed": false,
          "internalType": "uint256",
          "name": "pricePerday",
          "type": "uint256"
        },
        {
          "indexed": false,
          "internalType": "string[]",
          "name": "datesBooked",
          "type": "string[]"
        },
        {
          "indexed": false,
          "internalType": "uint256",
          "name": "id",
          "type": "uint256"
        },
        {
          "indexed": false,
          "internalType": "address",
          "name": "renter",
          "type": "address"
        }
      ],
      "name": "rentalCreated",
      "type": "event"
    },
    {
      "inputs": [],
      "name": "TRANSFER_REQUEST_ID",
      "outputs": [
        {
          "internalType": "uint64",
          "name": "",
          "type": "uint64"
        }
      ],
      "stateMutability": "view",
      "type": "function"
    },
    {
      "inputs": [
        {
          "internalType": "uint256",
          "name": "id",
          "type": "uint256"
        },
        {
          "internalType": "string[]",
          "name": "newBooking",
          "type": "string[]"
        }
      ],
      "name": "addBooking",
      "outputs": [],
      "stateMutability": "payable",
      "type": "function"
    },
    {
      "inputs": [
        {
          "internalType": "string",
          "name": "name",
          "type": "string"
        },
        {
          "internalType": "string",
          "name": "city",
          "type": "string"
        },
        {
          "internalType": "string",
          "name": "latitude",
          "type": "string"
        },
        {
          "internalType": "string",
          "name": "longitude",
          "type": "string"
        },
        {
          "internalType": "string",
          "name": "description1",
          "type": "string"
        },
        {
          "internalType": "string",
          "name": "description2",
          "type": "string"
        },
        {
          "internalType": "string",
          "name": "imageUrl",
          "type": "string"
        },
        {
          "internalType": "uint256",
          "name": "maxGuests",
          "type": "uint256"
        },
        {
          "internalType": "uint256",
          "name": "pricePerday",
          "type": "uint256"
        },
        {
          "internalType": "string[]",
          "name": "datesBooked",
          "type": "string[]"
        }
      ],
      "name": "addRentals",
      "outputs": [],
      "stateMutability": "nonpayable",
      "type": "function"
    },
    {
      "inputs": [
        {
          "internalType": "address",
          "name": "",
          "type": "address"
        }
      ],
      "name": "addressToId",
      "outputs": [
        {
          "internalType": "uint256",
          "name": "",
          "type": "uint256"
        }
      ],
      "stateMutability": "view",
      "type": "function"
    },
    {
      "inputs": [
        {
          "internalType": "uint256",
          "name": "id",
          "type": "uint256"
        }
      ],
      "name": "getRentals",
      "outputs": [
        {
          "internalType": "string",
          "name": "",
          "type": "string"
        },
        {
          "internalType": "string",
          "name": "",
          "type": "string"
        },
        {
          "internalType": "uint256",
          "name": "",
          "type": "uint256"
        },
        {
          "internalType": "string[]",
          "name": "",
          "type": "string[]"
        }
      ],
      "stateMutability": "view",
      "type": "function"
    },
    {
      "inputs": [],
      "name": "getSupportedRequests",
      "outputs": [
        {
          "internalType": "uint64[]",
          "name": "arr",
          "type": "uint64[]"
        }
      ],
      "stateMutability": "view",
      "type": "function"
    },
    {
      "inputs": [
        {
          "internalType": "uint64",
          "name": "requestId",
          "type": "uint64"
        }
      ],
      "name": "getZKPRequest",
      "outputs": [
        {
          "components": [
            {
              "internalType": "uint256",
              "name": "schema",
              "type": "uint256"
            },
            {
              "internalType": "uint256",
              "name": "slotIndex",
              "type": "uint256"
            },
            {
              "internalType": "uint256",
              "name": "operator",
              "type": "uint256"
            },
            {
              "internalType": "uint256[]",
              "name": "value",
              "type": "uint256[]"
            },
            {
              "internalType": "string",
              "name": "circuitId",
              "type": "string"
            }
          ],
          "internalType": "struct ICircuitValidator.CircuitQuery",
          "name": "",
          "type": "tuple"
        }
      ],
      "stateMutability": "view",
      "type": "function"
    },
    {
      "inputs": [
        {
          "internalType": "address",
          "name": "",
          "type": "address"
        }
      ],
      "name": "hasProof",
      "outputs": [
        {
          "internalType": "bool",
          "name": "",
          "type": "bool"
        }
      ],
      "stateMutability": "view",
      "type": "function"
    },
    {
      "inputs": [
        {
          "internalType": "uint256",
          "name": "",
          "type": "uint256"
        }
      ],
      "name": "idToAddress",
      "outputs": [
        {
          "internalType": "address",
          "name": "",
          "type": "address"
        }
      ],
      "stateMutability": "view",
      "type": "function"
    },
    {
      "inputs": [],
      "name": "owner",
      "outputs": [
        {
          "internalType": "address",
          "name": "",
          "type": "address"
        }
      ],
      "stateMutability": "view",
      "type": "function"
    },
    {
      "inputs": [
        {
          "internalType": "address",
          "name": "",
          "type": "address"
        },
        {
          "internalType": "uint64",
          "name": "",
          "type": "uint64"
        }
      ],
      "name": "proofs",
      "outputs": [
        {
          "internalType": "bool",
          "name": "",
          "type": "bool"
        }
      ],
      "stateMutability": "view",
      "type": "function"
    },
    {
      "inputs": [],
      "name": "renounceOwnership",
      "outputs": [],
      "stateMutability": "nonpayable",
      "type": "function"
    },
    {
      "inputs": [
        {
          "internalType": "uint256",
          "name": "",
          "type": "uint256"
        }
      ],
      "name": "rentalsID",
      "outputs": [
        {
          "internalType": "uint256",
          "name": "",
          "type": "uint256"
        }
      ],
      "stateMutability": "view",
      "type": "function"
    },
    {
      "inputs": [
        {
          "internalType": "uint64",
          "name": "",
          "type": "uint64"
        }
      ],
      "name": "requestQueries",
      "outputs": [
        {
          "internalType": "uint256",
          "name": "schema",
          "type": "uint256"
        },
        {
          "internalType": "uint256",
          "name": "slotIndex",
          "type": "uint256"
        },
        {
          "internalType": "uint256",
          "name": "operator",
          "type": "uint256"
        },
        {
          "internalType": "string",
          "name": "circuitId",
          "type": "string"
        }
      ],
      "stateMutability": "view",
      "type": "function"
    },
    {
      "inputs": [
        {
          "internalType": "uint64",
          "name": "",
          "type": "uint64"
        }
      ],
      "name": "requestValidators",
      "outputs": [
        {
          "internalType": "contract ICircuitValidator",
          "name": "",
          "type": "address"
        }
      ],
      "stateMutability": "view",
      "type": "function"
    },
    {
      "inputs": [
        {
          "internalType": "uint64",
          "name": "requestId",
          "type": "uint64"
        },
        {
          "internalType": "contract ICircuitValidator",
          "name": "validator",
          "type": "address"
        },
        {
          "components": [
            {
              "internalType": "uint256",
              "name": "schema",
              "type": "uint256"
            },
            {
              "internalType": "uint256",
              "name": "slotIndex",
              "type": "uint256"
            },
            {
              "internalType": "uint256",
              "name": "operator",
              "type": "uint256"
            },
            {
              "internalType": "uint256[]",
              "name": "value",
              "type": "uint256[]"
            },
            {
              "internalType": "string",
              "name": "circuitId",
              "type": "string"
            }
          ],
          "internalType": "struct ICircuitValidator.CircuitQuery",
          "name": "query",
          "type": "tuple"
        }
      ],
      "name": "setZKPRequest",
      "outputs": [
        {
          "internalType": "bool",
          "name": "",
          "type": "bool"
        }
      ],
      "stateMutability": "nonpayable",
      "type": "function"
    },
    {
      "inputs": [
        {
          "internalType": "uint64",
          "name": "requestId",
          "type": "uint64"
        },
        {
          "internalType": "uint256[]",
          "name": "inputs",
          "type": "uint256[]"
        },
        {
          "internalType": "uint256[2]",
          "name": "a",
          "type": "uint256[2]"
        },
        {
          "internalType": "uint256[2][2]",
          "name": "b",
          "type": "uint256[2][2]"
        },
        {
          "internalType": "uint256[2]",
          "name": "c",
          "type": "uint256[2]"
        }
      ],
      "name": "submitZKPResponse",
      "outputs": [
        {
          "internalType": "bool",
          "name": "",
          "type": "bool"
        }
      ],
      "stateMutability": "nonpayable",
      "type": "function"
    },
    {
      "inputs": [
        {
          "internalType": "uint256",
          "name": "",
          "type": "uint256"
        }
      ],
      "name": "supportedRequests",
      "outputs": [
        {
          "internalType": "uint64",
          "name": "",
          "type": "uint64"
        }
      ],
      "stateMutability": "view",
      "type": "function"
    },
    {
      "inputs": [
        {
          "internalType": "address",
          "name": "newOwner",
          "type": "address"
        }
      ],
      "name": "transferOwnership",
      "outputs": [],
      "stateMutability": "nonpayable",
      "type": "function"
    }
  ],
  "bytecode": "0x60806040523480156200001157600080fd5b5062000032620000266200008160201b60201c565b6200008960201b60201c565b600060068190555033600560006101000a81548173ffffffffffffffffffffffffffffffffffffffff021916908373ffffffffffffffffffffffffffffffffffffffff1602179055506200014d565b600033905090565b60008060009054906101000a900473ffffffffffffffffffffffffffffffffffffffff169050816000806101000a81548173ffffffffffffffffffffffffffffffffffffffff021916908373ffffffffffffffffffffffffffffffffffffffff1602179055508173ffffffffffffffffffffffffffffffffffffffff168173ffffffffffffffffffffffffffffffffffffffff167f8be0079c531659141344cd1fd0a4f28419497f9722a3daafe3b4186f6b6457e060405160405180910390a35050565b614228806200015d6000396000f3fe6080604052600436106101145760003560e01c8063b45c0fdf116100a0578063deb38e7911610064578063deb38e79146103f8578063e3beac0314610421578063f14353261461045e578063f2fde38b1461049b578063fee207e6146104c457610114565b8063b45c0fdf146102c4578063b68967e214610301578063c76d08451461033e578063cb0e0d7d1461037b578063d496498f146103b857610114565b8063715018a6116100e7578063715018a6146101c85780638da5cb5b146101df5780638ee0f4521461020a57806396bf474114610247578063a87231141461028757610114565b80632a2d0c471461011957806337ba9523146101565780634ce12ac41461018157806363ec508f1461019d575b600080fd5b34801561012557600080fd5b50610140600480360381019061013b91906120c3565b610501565b60405161014d9190612131565b60405180910390f35b34801561016257600080fd5b5061016b610534565b604051610178919061221e565b60405180910390f35b61019b6004803603810190610196919061246c565b6105c0565b005b3480156101a957600080fd5b506101b26108a9565b6040516101bf91906124d7565b60405180910390f35b3480156101d457600080fd5b506101dd6108ae565b005b3480156101eb57600080fd5b506101f46108c2565b6040516102019190612131565b60405180910390f35b34801561021657600080fd5b50610231600480360381019061022c91906120c3565b6108eb565b60405161023e9190612501565b60405180910390f35b34801561025357600080fd5b5061026e60048036038101906102699190612548565b61090f565b60405161027e94939291906125f4565b60405180910390f35b34801561029357600080fd5b506102ae60048036038101906102a99190612548565b6109c7565b6040516102bb919061269f565b60405180910390f35b3480156102d057600080fd5b506102eb60048036038101906102e691906126e6565b6109fa565b6040516102f89190612741565b60405180910390f35b34801561030d57600080fd5b5061032860048036038101906103239190612981565b610a29565b6040516103359190612741565b60405180910390f35b34801561034a57600080fd5b5061036560048036038101906103609190612548565b610da8565b6040516103729190612b9f565b60405180910390f35b34801561038757600080fd5b506103a2600480360381019061039d9190612bc1565b610ef1565b6040516103af9190612501565b60405180910390f35b3480156103c457600080fd5b506103df60048036038101906103da91906120c3565b610f09565b6040516103ef9493929190612cb0565b60405180910390f35b34801561040457600080fd5b5061041f600480360381019061041a9190612d0a565b611133565b005b34801561042d57600080fd5b5061044860048036038101906104439190612bc1565b6113b6565b6040516104559190612741565b60405180910390f35b34801561046a57600080fd5b50610485600480360381019061048091906120c3565b6113d6565b60405161049291906124d7565b60405180910390f35b3480156104a757600080fd5b506104c260048036038101906104bd9190612bc1565b611414565b005b3480156104d057600080fd5b506104eb60048036038101906104e69190612fd5565b611497565b6040516104f89190612741565b60405180910390f35b60076020528060005260406000206000915054906101000a900473ffffffffffffffffffffffffffffffffffffffff1681565b606060048054806020026020016040519081016040528092919081815260200182805480156105b657602002820191906000526020600020906000905b82829054906101000a900467ffffffffffffffff1667ffffffffffffffff16815260200190600801906020826007010492830192600103820291508084116105715790505b5050505050905090565b600960003373ffffffffffffffffffffffffffffffffffffffff1673ffffffffffffffffffffffffffffffffffffffff16815260200190815260200160002060009054906101000a900460ff1661064c576040517f08c379a0000000000000000000000000000000000000000000000000000000008152600401610643906130b6565b60405180910390fd5b6006548210610690576040517f08c379a000000000000000000000000000000000000000000000000000000000815260040161068790613122565b60405180910390fd5b61069a8282611738565b6106d9576040517f08c379a00000000000000000000000000000000000000000000000000000000081526004016106d0906131b4565b60405180910390fd5b670de0b6b3a76400008151600a6000858152602001908152602001600020600801546107059190613203565b61070f9190613203565b3414610750576040517f08c379a000000000000000000000000000000000000000000000000000000000815260040161074790613291565b60405180910390fd5b60005b81518110156107d257600a6000848152602001908152602001600020600901828281518110610785576107846132b1565b5b60200260200101519080600181540180825580915050600190039060005260206000200160009091909190915090816107be91906134e2565b5080806107ca906135b4565b915050610753565b50600560009054906101000a900473ffffffffffffffffffffffffffffffffffffffff1673ffffffffffffffffffffffffffffffffffffffff166108fc349081150290604051600060405180830381858888f1935050505015801561083b573d6000803e3d6000fd5b507f6b6a0c45d8e9c492a39ac5ff20ccf93f43f6311d355225976dc0205c547a606a8183600a6000868152602001908152602001600020600101600a60008781526020019081526020016000206006013360405161089d959493929190613680565b60405180910390a15050565b600181565b6108b6611849565b6108c060006118c7565b565b60008060009054906101000a900473ffffffffffffffffffffffffffffffffffffffff16905090565b600b81815481106108fb57600080fd5b906000526020600020016000915090505481565b60026020528060005260406000206000915090508060000154908060010154908060020154908060040180546109449061330f565b80601f01602080910402602001604051908101604052809291908181526020018280546109709061330f565b80156109bd5780601f10610992576101008083540402835291602001916109bd565b820191906000526020600020905b8154815290600101906020018083116109a057829003601f168201915b5050505050905084565b60036020528060005260406000206000915054906101000a900473ffffffffffffffffffffffffffffffffffffffff1681565b60016020528160005260406000206020528060005260406000206000915091509054906101000a900460ff1681565b60008073ffffffffffffffffffffffffffffffffffffffff16600360008867ffffffffffffffff1667ffffffffffffffff16815260200190815260200160002060009054906101000a900473ffffffffffffffffffffffffffffffffffffffff1673ffffffffffffffffffffffffffffffffffffffff1603610ae0576040517f08c379a0000000000000000000000000000000000000000000000000000000008152600401610ad79061375a565b60405180910390fd5b6000600260008867ffffffffffffffff1667ffffffffffffffff1681526020019081526020016000206000015403610b4d576040517f08c379a0000000000000000000000000000000000000000000000000000000008152600401610b44906137ec565b60405180910390fd5b610b9f8686600360008a67ffffffffffffffff1667ffffffffffffffff16815260200190815260200160002060009054906101000a900473ffffffffffffffffffffffffffffffffffffffff1661198b565b600360008767ffffffffffffffff1667ffffffffffffffff16815260200190815260200160002060009054906101000a900473ffffffffffffffffffffffffffffffffffffffff1673ffffffffffffffffffffffffffffffffffffffff166367e1d50486868686600260008d67ffffffffffffffff1667ffffffffffffffff1681526020019081526020016000206040518663ffffffff1660e01b8152600401610c4d959493929190613bf5565b602060405180830381865afa158015610c6a573d6000803e3d6000fd5b505050506040513d601f19601f82011682018060405250810190610c8e9190613c84565b610ccd576040517f08c379a0000000000000000000000000000000000000000000000000000000008152600401610cc490613cfd565b60405180910390fd5b60018060003373ffffffffffffffffffffffffffffffffffffffff1673ffffffffffffffffffffffffffffffffffffffff16815260200190815260200160002060008867ffffffffffffffff1667ffffffffffffffff16815260200190815260200160002060006101000a81548160ff021916908315150217905550610d9b8686600360008a67ffffffffffffffff1667ffffffffffffffff16815260200190815260200160002060009054906101000a900473ffffffffffffffffffffffffffffffffffffffff16611a9b565b6001905095945050505050565b610db0611f23565b600260008367ffffffffffffffff1667ffffffffffffffff1681526020019081526020016000206040518060a001604052908160008201548152602001600182015481526020016002820154815260200160038201805480602002602001604051908101604052809291908181526020018280548015610e4f57602002820191906000526020600020905b815481526020019060010190808311610e3b575b50505050508152602001600482018054610e689061330f565b80601f0160208091040260200160405190810160405280929190818152602001828054610e949061330f565b8015610ee15780601f10610eb657610100808354040283529160200191610ee1565b820191906000526020600020905b815481529060010190602001808311610ec457829003601f168201915b5050505050815250509050919050565b60086020528060005260406000206000915090505481565b606080600060606000600a600087815260200190815260200160002090508060000181600101826008015483600901838054610f449061330f565b80601f0160208091040260200160405190810160405280929190818152602001828054610f709061330f565b8015610fbd5780601f10610f9257610100808354040283529160200191610fbd565b820191906000526020600020905b815481529060010190602001808311610fa057829003601f168201915b50505050509350828054610fd09061330f565b80601f0160208091040260200160405190810160405280929190818152602001828054610ffc9061330f565b80156110495780601f1061101e57610100808354040283529160200191611049565b820191906000526020600020905b81548152906001019060200180831161102c57829003601f168201915b5050505050925080805480602002602001604051908101604052809291908181526020016000905b8282101561111d5783829060005260206000200180546110909061330f565b80601f01602080910402602001604051908101604052809291908181526020018280546110bc9061330f565b80156111095780601f106110de57610100808354040283529160200191611109565b820191906000526020600020905b8154815290600101906020018083116110ec57829003601f168201915b505050505081526020019060010190611071565b5050505090509450945094509450509193509193565b600560009054906101000a900473ffffffffffffffffffffffffffffffffffffffff1673ffffffffffffffffffffffffffffffffffffffff163373ffffffffffffffffffffffffffffffffffffffff16146111c3576040517f08c379a00000000000000000000000000000000000000000000000000000000081526004016111ba90613d8f565b60405180910390fd5b6000600a6000600654815260200190815260200160002090508a8160000190816111ed91906134e2565b50898160010190816111ff91906134e2565b508881600201908161121191906134e2565b508781600301908161122391906134e2565b508681600401908161123591906134e2565b508581600501908161124791906134e2565b508481600601908161125991906134e2565b5083816007018190555082816008018190555060065481600a0181905550600560009054906101000a900473ffffffffffffffffffffffffffffffffffffffff1681600b0160006101000a81548173ffffffffffffffffffffffffffffffffffffffff021916908373ffffffffffffffffffffffffffffffffffffffff160217905550818160090190805190602001906112f4929190611f52565b50600b600654908060018154018082558091505060019003906000526020600020016000909190919091505560066000815480929190611333906135b4565b91905055507fc06f078c3c74d235829af3e011ff5aae487c78ef8d3acca688417ed86ff145918b8b8b8b8b8b8b8b8b8b600654600560009054906101000a900473ffffffffffffffffffffffffffffffffffffffff166040516113a19c9b9a99989796959493929190613daf565b60405180910390a15050505050505050505050565b60096020528060005260406000206000915054906101000a900460ff1681565b600481815481106113e657600080fd5b9060005260206000209060049182820401919006600802915054906101000a900467ffffffffffffffff1681565b61141c611849565b600073ffffffffffffffffffffffffffffffffffffffff168173ffffffffffffffffffffffffffffffffffffffff160361148b576040517f08c379a000000000000000000000000000000000000000000000000000000000815260040161148290613f13565b60405180910390fd5b611494816118c7565b50565b60006114a1611849565b600073ffffffffffffffffffffffffffffffffffffffff16600360008667ffffffffffffffff1667ffffffffffffffff16815260200190815260200160002060009054906101000a900473ffffffffffffffffffffffffffffffffffffffff1673ffffffffffffffffffffffffffffffffffffffff16036115735760048490806001815401808255809150506001900390600052602060002090600491828204019190066008029091909190916101000a81548167ffffffffffffffff021916908367ffffffffffffffff1602179055505b8160600151600260008667ffffffffffffffff1667ffffffffffffffff16815260200190815260200160002060030190805190602001906115b5929190611fab565b508160400151600260008667ffffffffffffffff1667ffffffffffffffff168152602001908152602001600020600201819055508160800151600260008667ffffffffffffffff1667ffffffffffffffff168152602001908152602001600020600401908161162491906134e2565b508160200151600260008667ffffffffffffffff1667ffffffffffffffff168152602001908152602001600020600101819055508160000151600260008667ffffffffffffffff1667ffffffffffffffff168152602001908152602001600020600001819055508160800151600260008667ffffffffffffffff1667ffffffffffffffff16815260200190815260200160002060040190816116c691906134e2565b5082600360008667ffffffffffffffff1667ffffffffffffffff16815260200190815260200160002060006101000a81548173ffffffffffffffffffffffffffffffffffffffff021916908373ffffffffffffffffffffffffffffffffffffffff160217905550600190509392505050565b600080600090505b825181101561183d5760005b600a60008681526020019081526020016000206009018054905081101561182957600a60008681526020019081526020016000206009018181548110611795576117946132b1565b5b906000526020600020016040516020016117af9190613fc1565b604051602081830303815290604052805190602001208483815181106117d8576117d76132b1565b5b60200260200101516040516020016117f09190614009565b604051602081830303815290604052805190602001200361181657600092505050611843565b8080611821906135b4565b91505061174c565b508080611835906135b4565b915050611740565b50600190505b92915050565b611851611d42565b73ffffffffffffffffffffffffffffffffffffffff1661186f6108c2565b73ffffffffffffffffffffffffffffffffffffffff16146118c5576040517f08c379a00000000000000000000000000000000000000000000000000000000081526004016118bc9061406c565b60405180910390fd5b565b60008060009054906101000a900473ffffffffffffffffffffffffffffffffffffffff169050816000806101000a81548173ffffffffffffffffffffffffffffffffffffffff021916908373ffffffffffffffffffffffffffffffffffffffff1602179055508173ffffffffffffffffffffffffffffffffffffffff168173ffffffffffffffffffffffffffffffffffffffff167f8be0079c531659141344cd1fd0a4f28419497f9722a3daafe3b4186f6b6457e060405160405180910390a35050565b6000611a1e838373ffffffffffffffffffffffffffffffffffffffff16639f442afa6040518163ffffffff1660e01b8152600401602060405180830381865afa1580156119dc573d6000803e3d6000fd5b505050506040513d601f19601f82011682018060405250810190611a0091906140a1565b81518110611a1157611a106132b1565b5b6020026020010151611d4a565b90508073ffffffffffffffffffffffffffffffffffffffff16611a3f611d42565b73ffffffffffffffffffffffffffffffffffffffff1614611a95576040517f08c379a0000000000000000000000000000000000000000000000000000000008152600401611a8c90614140565b60405180910390fd5b50505050565b600167ffffffffffffffff168367ffffffffffffffff16148015611b055750600060086000611ac8611d42565b73ffffffffffffffffffffffffffffffffffffffff1673ffffffffffffffffffffffffffffffffffffffff16815260200190815260200160002054145b611b44576040517f08c379a0000000000000000000000000000000000000000000000000000000008152600401611b3b906141d2565b60405180910390fd5b6000828273ffffffffffffffffffffffffffffffffffffffff16639f442afa6040518163ffffffff1660e01b8152600401602060405180830381865afa158015611b92573d6000803e3d6000fd5b505050506040513d601f19601f82011682018060405250810190611bb691906140a1565b81518110611bc757611bc66132b1565b5b60200260200101519050600073ffffffffffffffffffffffffffffffffffffffff166007600083815260200190815260200160002060009054906101000a900473ffffffffffffffffffffffffffffffffffffffff1673ffffffffffffffffffffffffffffffffffffffff1603611d3c578060086000611c45611d42565b73ffffffffffffffffffffffffffffffffffffffff1673ffffffffffffffffffffffffffffffffffffffff16815260200190815260200160002081905550611c8b611d42565b6007600083815260200190815260200160002060006101000a81548173ffffffffffffffffffffffffffffffffffffffff021916908373ffffffffffffffffffffffffffffffffffffffff160217905550600160096000611cea611d42565b73ffffffffffffffffffffffffffffffffffffffff1673ffffffffffffffffffffffffffffffffffffffff16815260200190815260200160002060006101000a81548160ff0219169083151502179055505b50505050565b600033905090565b6000611d65611d60611d5b84611d6c565b611eb8565b611f15565b9050919050565b600081905060087eff00ff00ff00ff00ff00ff00ff00ff00ff00ff00ff00ff00ff00ff00ff00ff8216901b60087fff00ff00ff00ff00ff00ff00ff00ff00ff00ff00ff00ff00ff00ff00ff00ff008316901c17905060107dffff0000ffff0000ffff0000ffff0000ffff0000ffff0000ffff0000ffff8216901b60107fffff0000ffff0000ffff0000ffff0000ffff0000ffff0000ffff0000ffff00008316901c17905060207bffffffff00000000ffffffff00000000ffffffff00000000ffffffff8216901b60207fffffffff00000000ffffffff00000000ffffffff00000000ffffffff000000008316901c179050604077ffffffffffffffff0000000000000000ffffffffffffffff8216901b60407fffffffffffffffff0000000000000000ffffffffffffffff00000000000000008316901c179050608081901b608082901c179050919050565b6060602067ffffffffffffffff811115611ed557611ed4612256565b5b6040519080825280601f01601f191660200182016040528015611f075781602001600182028036833780820191505090505b509050816020820152919050565b600060148201519050919050565b6040518060a0016040528060008152602001600081526020016000815260200160608152602001606081525090565b828054828255906000526020600020908101928215611f9a579160200282015b82811115611f99578251829081611f8991906134e2565b5091602001919060010190611f72565b5b509050611fa79190611ff8565b5090565b828054828255906000526020600020908101928215611fe7579160200282015b82811115611fe6578251825591602001919060010190611fcb565b5b509050611ff4919061201c565b5090565b5b80821115612018576000818161200f9190612039565b50600101611ff9565b5090565b5b8082111561203557600081600090555060010161201d565b5090565b5080546120459061330f565b6000825580601f106120575750612076565b601f016020900490600052602060002090810190612075919061201c565b5b50565b6000604051905090565b600080fd5b600080fd5b6000819050919050565b6120a08161208d565b81146120ab57600080fd5b50565b6000813590506120bd81612097565b92915050565b6000602082840312156120d9576120d8612083565b5b60006120e7848285016120ae565b91505092915050565b600073ffffffffffffffffffffffffffffffffffffffff82169050919050565b600061211b826120f0565b9050919050565b61212b81612110565b82525050565b60006020820190506121466000830184612122565b92915050565b600081519050919050565b600082825260208201905092915050565b6000819050602082019050919050565b600067ffffffffffffffff82169050919050565b61219581612178565b82525050565b60006121a7838361218c565b60208301905092915050565b6000602082019050919050565b60006121cb8261214c565b6121d58185612157565b93506121e083612168565b8060005b838110156122115781516121f8888261219b565b9750612203836121b3565b9250506001810190506121e4565b5085935050505092915050565b6000602082019050818103600083015261223881846121c0565b905092915050565b600080fd5b6000601f19601f8301169050919050565b7f4e487b7100000000000000000000000000000000000000000000000000000000600052604160045260246000fd5b61228e82612245565b810181811067ffffffffffffffff821117156122ad576122ac612256565b5b80604052505050565b60006122c0612079565b90506122cc8282612285565b919050565b600067ffffffffffffffff8211156122ec576122eb612256565b5b602082029050602081019050919050565b600080fd5b600080fd5b600067ffffffffffffffff82111561232257612321612256565b5b61232b82612245565b9050602081019050919050565b82818337600083830152505050565b600061235a61235584612307565b6122b6565b90508281526020810184848401111561237657612375612302565b5b612381848285612338565b509392505050565b600082601f83011261239e5761239d612240565b5b81356123ae848260208601612347565b91505092915050565b60006123ca6123c5846122d1565b6122b6565b905080838252602082019050602084028301858111156123ed576123ec6122fd565b5b835b8181101561243457803567ffffffffffffffff81111561241257612411612240565b5b80860161241f8982612389565b855260208501945050506020810190506123ef565b5050509392505050565b600082601f83011261245357612452612240565b5b81356124638482602086016123b7565b91505092915050565b6000806040838503121561248357612482612083565b5b6000612491858286016120ae565b925050602083013567ffffffffffffffff8111156124b2576124b1612088565b5b6124be8582860161243e565b9150509250929050565b6124d181612178565b82525050565b60006020820190506124ec60008301846124c8565b92915050565b6124fb8161208d565b82525050565b600060208201905061251660008301846124f2565b92915050565b61252581612178565b811461253057600080fd5b50565b6000813590506125428161251c565b92915050565b60006020828403121561255e5761255d612083565b5b600061256c84828501612533565b91505092915050565b600081519050919050565b600082825260208201905092915050565b60005b838110156125af578082015181840152602081019050612594565b60008484015250505050565b60006125c682612575565b6125d08185612580565b93506125e0818560208601612591565b6125e981612245565b840191505092915050565b600060808201905061260960008301876124f2565b61261660208301866124f2565b61262360408301856124f2565b818103606083015261263581846125bb565b905095945050505050565b6000819050919050565b600061266561266061265b846120f0565b612640565b6120f0565b9050919050565b60006126778261264a565b9050919050565b60006126898261266c565b9050919050565b6126998161267e565b82525050565b60006020820190506126b46000830184612690565b92915050565b6126c381612110565b81146126ce57600080fd5b50565b6000813590506126e0816126ba565b92915050565b600080604083850312156126fd576126fc612083565b5b600061270b858286016126d1565b925050602061271c85828601612533565b9150509250929050565b60008115159050919050565b61273b81612726565b82525050565b60006020820190506127566000830184612732565b92915050565b600067ffffffffffffffff82111561277757612776612256565b5b602082029050602081019050919050565b600061279b6127968461275c565b6122b6565b905080838252602082019050602084028301858111156127be576127bd6122fd565b5b835b818110156127e757806127d388826120ae565b8452602084019350506020810190506127c0565b5050509392505050565b600082601f83011261280657612805612240565b5b8135612816848260208601612788565b91505092915050565b600067ffffffffffffffff82111561283a57612839612256565b5b602082029050919050565b60006128586128538461281f565b6122b6565b90508060208402830185811115612872576128716122fd565b5b835b8181101561289b578061288788826120ae565b845260208401935050602081019050612874565b5050509392505050565b600082601f8301126128ba576128b9612240565b5b60026128c7848285612845565b91505092915050565b600067ffffffffffffffff8211156128eb576128ea612256565b5b602082029050919050565b6000612909612904846128d0565b6122b6565b90508060408402830185811115612923576129226122fd565b5b835b8181101561294c578061293888826128a5565b845260208401935050604081019050612925565b5050509392505050565b600082601f83011261296b5761296a612240565b5b60026129788482856128f6565b91505092915050565b6000806000806000610140868803121561299e5761299d612083565b5b60006129ac88828901612533565b955050602086013567ffffffffffffffff8111156129cd576129cc612088565b5b6129d9888289016127f1565b94505060406129ea888289016128a5565b93505060806129fb88828901612956565b925050610100612a0d888289016128a5565b9150509295509295909350565b612a238161208d565b82525050565b600081519050919050565b600082825260208201905092915050565b6000819050602082019050919050565b6000612a618383612a1a565b60208301905092915050565b6000602082019050919050565b6000612a8582612a29565b612a8f8185612a34565b9350612a9a83612a45565b8060005b83811015612acb578151612ab28882612a55565b9750612abd83612a6d565b925050600181019050612a9e565b5085935050505092915050565b600082825260208201905092915050565b6000612af482612575565b612afe8185612ad8565b9350612b0e818560208601612591565b612b1781612245565b840191505092915050565b600060a083016000830151612b3a6000860182612a1a565b506020830151612b4d6020860182612a1a565b506040830151612b606040860182612a1a565b5060608301518482036060860152612b788282612a7a565b91505060808301518482036080860152612b928282612ae9565b9150508091505092915050565b60006020820190508181036000830152612bb98184612b22565b905092915050565b600060208284031215612bd757612bd6612083565b5b6000612be5848285016126d1565b91505092915050565b600081519050919050565b600082825260208201905092915050565b6000819050602082019050919050565b6000612c268383612ae9565b905092915050565b6000602082019050919050565b6000612c4682612bee565b612c508185612bf9565b935083602082028501612c6285612c0a565b8060005b85811015612c9e5784840389528151612c7f8582612c1a565b9450612c8a83612c2e565b925060208a01995050600181019050612c66565b50829750879550505050505092915050565b60006080820190508181036000830152612cca81876125bb565b90508181036020830152612cde81866125bb565b9050612ced60408301856124f2565b8181036060830152612cff8184612c3b565b905095945050505050565b6000806000806000806000806000806101408b8d031215612d2e57612d2d612083565b5b60008b013567ffffffffffffffff811115612d4c57612d4b612088565b5b612d588d828e01612389565b9a505060208b013567ffffffffffffffff811115612d7957612d78612088565b5b612d858d828e01612389565b99505060408b013567ffffffffffffffff811115612da657612da5612088565b5b612db28d828e01612389565b98505060608b013567ffffffffffffffff811115612dd357612dd2612088565b5b612ddf8d828e01612389565b97505060808b013567ffffffffffffffff811115612e0057612dff612088565b5b612e0c8d828e01612389565b96505060a08b013567ffffffffffffffff811115612e2d57612e2c612088565b5b612e398d828e01612389565b95505060c08b013567ffffffffffffffff811115612e5a57612e59612088565b5b612e668d828e01612389565b94505060e0612e778d828e016120ae565b935050610100612e898d828e016120ae565b9250506101208b013567ffffffffffffffff811115612eab57612eaa612088565b5b612eb78d828e0161243e565b9150509295989b9194979a5092959850565b6000612ed482612110565b9050919050565b612ee481612ec9565b8114612eef57600080fd5b50565b600081359050612f0181612edb565b92915050565b600080fd5b600080fd5b600060a08284031215612f2757612f26612f07565b5b612f3160a06122b6565b90506000612f41848285016120ae565b6000830152506020612f55848285016120ae565b6020830152506040612f69848285016120ae565b604083015250606082013567ffffffffffffffff811115612f8d57612f8c612f0c565b5b612f99848285016127f1565b606083015250608082013567ffffffffffffffff811115612fbd57612fbc612f0c565b5b612fc984828501612389565b60808301525092915050565b600080600060608486031215612fee57612fed612083565b5b6000612ffc86828701612533565b935050602061300d86828701612ef2565b925050604084013567ffffffffffffffff81111561302e5761302d612088565b5b61303a86828701612f11565b9150509250925092565b7f596f7520617265206e6f7420617070726f76656420746f206d616b6520626f6f60008201527f6b696e6773000000000000000000000000000000000000000000000000000000602082015250565b60006130a0602583612580565b91506130ab82613044565b604082019050919050565b600060208201905081810360008301526130cf81613093565b9050919050565b7f204e4f20737563682072656e74616c7320657869737400000000000000000000600082015250565b600061310c601683612580565b9150613117826130d6565b602082019050919050565b6000602082019050818103600083015261313b816130ff565b9050919050565b7f204e6f7420617661696c61626c6520666f72207265717565737465642064617460008201527f6520000000000000000000000000000000000000000000000000000000000000602082015250565b600061319e602283612580565b91506131a982613142565b604082019050919050565b600060208201905081810360008301526131cd81613191565b9050919050565b7f4e487b7100000000000000000000000000000000000000000000000000000000600052601160045260246000fd5b600061320e8261208d565b91506132198361208d565b92508282026132278161208d565b9150828204841483151761323e5761323d6131d4565b5b5092915050565b7f20506c656173652050617920746865207265717569726520616d6d6f756e7400600082015250565b600061327b601f83612580565b915061328682613245565b602082019050919050565b600060208201905081810360008301526132aa8161326e565b9050919050565b7f4e487b7100000000000000000000000000000000000000000000000000000000600052603260045260246000fd5b7f4e487b7100000000000000000000000000000000000000000000000000000000600052602260045260246000fd5b6000600282049050600182168061332757607f821691505b60208210810361333a576133396132e0565b5b50919050565b60008190508160005260206000209050919050565b60006020601f8301049050919050565b600082821b905092915050565b6000600883026133a27fffffffffffffffffffffffffffffffffffffffffffffffffffffffffffffffff82613365565b6133ac8683613365565b95508019841693508086168417925050509392505050565b60006133df6133da6133d58461208d565b612640565b61208d565b9050919050565b6000819050919050565b6133f9836133c4565b61340d613405826133e6565b848454613372565b825550505050565b600090565b613422613415565b61342d8184846133f0565b505050565b5b818110156134515761344660008261341a565b600181019050613433565b5050565b601f8211156134965761346781613340565b61347084613355565b8101602085101561347f578190505b61349361348b85613355565b830182613432565b50505b505050565b600082821c905092915050565b60006134b96000198460080261349b565b1980831691505092915050565b60006134d283836134a8565b9150826002028217905092915050565b6134eb82612575565b67ffffffffffffffff81111561350457613503612256565b5b61350e825461330f565b613519828285613455565b600060209050601f83116001811461354c576000841561353a578287015190505b61354485826134c6565b8655506135ac565b601f19841661355a86613340565b60005b828110156135825784890151825560018201915060208501945060208101905061355d565b8683101561359f578489015161359b601f8916826134a8565b8355505b6001600288020188555050505b505050505050565b60006135bf8261208d565b91507fffffffffffffffffffffffffffffffffffffffffffffffffffffffffffffffff82036135f1576135f06131d4565b5b600182019050919050565b600081546136098161330f565b6136138186612580565b9450600182166000811461362e576001811461364457613677565b60ff198316865281151560200286019350613677565b61364d85613340565b60005b8381101561366f57815481890152600182019150602081019050613650565b808801955050505b50505092915050565b600060a082019050818103600083015261369a8188612c3b565b90506136a960208301876124f2565b81810360408301526136bb81866135fc565b905081810360608301526136cf81856135fc565b90506136de6080830184612122565b9695505050505050565b7f76616c696461746f72206973206e6f742073657420666f72207468697320726560008201527f7175657374206964000000000000000000000000000000000000000000000000602082015250565b6000613744602883612580565b915061374f826136e8565b604082019050919050565b6000602082019050818103600083015261377381613737565b9050919050565b7f7175657279206973206e6f742073657420666f7220746869732072657175657360008201527f7420696400000000000000000000000000000000000000000000000000000000602082015250565b60006137d6602483612580565b91506137e18261377a565b604082019050919050565b60006020820190508181036000830152613805816137c9565b9050919050565b600082825260208201905092915050565b600061382882612a29565b613832818561380c565b935061383d83612a45565b8060005b8381101561386e5781516138558882612a55565b975061386083612a6d565b925050600181019050613841565b5085935050505092915050565b600060029050919050565b600081905092915050565b6000819050919050565b6000602082019050919050565b6138b18161387b565b6138bb8184613886565b92506138c682613891565b8060005b838110156138f75781516138de8782612a55565b96506138e98361389b565b9250506001810190506138ca565b505050505050565b600060029050919050565b600081905092915050565b6000819050919050565b600081905092915050565b6139338161387b565b61393d818461391f565b925061394882613891565b8060005b838110156139795781516139608782612a55565b965061396b8361389b565b92505060018101905061394c565b505050505050565b600061398d838361392a565b60408301905092915050565b6000602082019050919050565b6139af816138ff565b6139b9818461390a565b92506139c482613915565b8060005b838110156139f55781516139dc8782613981565b96506139e783613999565b9250506001810190506139c8565b505050505050565b60008160001c9050919050565b6000819050919050565b6000613a27613a22836139fd565b613a0a565b9050919050565b600081549050919050565b60008190508160005260206000209050919050565b6000613a5a8254613a14565b9050919050565b6000600182019050919050565b6000613a7982613a2e565b613a838185612a34565b9350613a8e83613a39565b8060005b83811015613ac657613aa382613a4e565b613aad8882612a55565b9750613ab883613a61565b925050600181019050613a92565b5085935050505092915050565b60008154613ae08161330f565b613aea8186612ad8565b94506001821660008114613b055760018114613b1b57613b4e565b60ff198316865281151560200286019350613b4e565b613b2485613340565b60005b83811015613b4657815481890152600182019150602081019050613b27565b808801955050505b50505092915050565b600060a083016000808401549050613b6e81613a14565b613b7b6000870182612a1a565b5060018401549050613b8c81613a14565b613b996020870182612a1a565b5060028401549050613baa81613a14565b613bb76040870182612a1a565b50600384018583036060870152613bce8382613a6e565b925050600484018583036080870152613be78382613ad3565b925050819250505092915050565b6000610140820190508181036000830152613c10818861381d565b9050613c1f60208301876138a8565b613c2c60608301866139a6565b613c3960e08301856138a8565b818103610120830152613c4c8184613b57565b90509695505050505050565b613c6181612726565b8114613c6c57600080fd5b50565b600081519050613c7e81613c58565b92915050565b600060208284031215613c9a57613c99612083565b5b6000613ca884828501613c6f565b91505092915050565b7f70726f6f6620726573706f6e7365206973206e6f742076616c69640000000000600082015250565b6000613ce7601b83612580565b9150613cf282613cb1565b602082019050919050565b60006020820190508181036000830152613d1681613cda565b9050919050565b7f204f6e6c79204573746179206f776e6572206f6620736d61727420636f6e747260008201527f6163742063616e207075742075702072656e74616c7300000000000000000000602082015250565b6000613d79603683612580565b9150613d8482613d1d565b604082019050919050565b60006020820190508181036000830152613da881613d6c565b9050919050565b6000610180820190508181036000830152613dca818f6125bb565b90508181036020830152613dde818e6125bb565b90508181036040830152613df2818d6125bb565b90508181036060830152613e06818c6125bb565b90508181036080830152613e1a818b6125bb565b905081810360a0830152613e2e818a6125bb565b905081810360c0830152613e4281896125bb565b9050613e5160e08301886124f2565b613e5f6101008301876124f2565b818103610120830152613e728186612c3b565b9050613e826101408301856124f2565b613e90610160830184612122565b9d9c50505050505050505050505050565b7f4f776e61626c653a206e6577206f776e657220697320746865207a65726f206160008201527f6464726573730000000000000000000000000000000000000000000000000000602082015250565b6000613efd602683612580565b9150613f0882613ea1565b604082019050919050565b60006020820190508181036000830152613f2c81613ef0565b9050919050565b600081905092915050565b60008154613f4b8161330f565b613f558186613f33565b94506001821660008114613f705760018114613f8557613fb8565b60ff1983168652811515820286019350613fb8565b613f8e85613340565b60005b83811015613fb057815481890152600182019150602081019050613f91565b838801955050505b50505092915050565b6000613fcd8284613f3e565b915081905092915050565b6000613fe382612575565b613fed8185613f33565b9350613ffd818560208601612591565b80840191505092915050565b60006140158284613fd8565b915081905092915050565b7f4f776e61626c653a2063616c6c6572206973206e6f7420746865206f776e6572600082015250565b6000614056602083612580565b915061406182614020565b602082019050919050565b6000602082019050818103600083015261408581614049565b9050919050565b60008151905061409b81612097565b92915050565b6000602082840312156140b7576140b6612083565b5b60006140c58482850161408c565b91505092915050565b7f6164647265737320696e207468652070726f6f66206973206e6f74206120736560008201527f6e64657220616464726573730000000000000000000000000000000000000000602082015250565b600061412a602c83612580565b9150614135826140ce565b604082019050919050565b600060208201905081810360008301526141598161411d565b9050919050565b7f70726f6f662063616e206e6f74206265207375626d6974746564206d6f72652060008201527f7468616e206f6e63650000000000000000000000000000000000000000000000602082015250565b60006141bc602983612580565b91506141c782614160565b604082019050919050565b600060208201905081810360008301526141eb816141af565b905091905056fea264697066735822122003196e9072becb8eae8ae048fc07a1897b6d622528a8b097e64f6341d910eb8964736f6c63430008110033",
  "linkReferences": {},
  "deployedLinkReferences": {}
}